:020000040001F9
:10F000009079002015F401001DF401001FF40100A7
:10F0100021F4010023F4010025F4010000000000A8
:10F0200000000000000000000000000027F40100C4
:10F0300029F40100000000002BF401002DF4010070
:10F04000F1FC01002FF40100F5030200E9000200C9
:10F05000290102002FF401001DFB01006DFD0100DC
:10F06000CD030200E10302002FF401002FF40100A0
:10F070002FF401002FF401002FF401002FF4010000
:10F080002FF4010049FD01002FF401002FF40100CD
:10F09000390102002FF401003D0102002FF40100AC
:10F0A0002FF401002FF401002FF401002FF40100D0
:10F0B0002FF401002FF40100000000000000000008
:10F0C0002FF401002FF401002FF401002FF40100B0
:10F0D0002FF401002FF401002FF4010000000000C4
:10F0E0000000000000000000000000000000000020
:10F0F0000000000000000000000000000000000010
:10F1000000000000000000000000000000000000FF
:10F1100000000000000000000000000000000000EF
:10F40000DFF80CD000F02CFB00480047513302001D
:10F41000907900200648804706480047FEE7FEE74F
:10F42000FEE7FEE7FEE7FEE7FEE7FEE7FEE7FEE7B4
:10F430006101020001F4010040EA01039B0703D0CF
:10F4400009E008C9121F08C0042AFAD203E011F823
:10F45000013B00F8013B521EF9D27047D2B201E0E5
:10F4600000F8012B491EFBD270470022F6E710B5C9
:10F4700013460A4604461946FFF7F0FF204610BD22
:10F48000421C10F8011B0029FBD1801A704703466B
:10F4900011F8012B00F8012B002AF9D1184670470A
:10F4A0002DE9FE4F81EA030404F0004421F00041FD
:10F4B00000944FF0000B23F0004350EA01045ED0AB
:10F4C00052EA03045BD0C3F30A54C1F30A552C4437
:10F4D000A4F2F3340194A0FB0254C1F3130141F4EC
:10F4E0008011C3F3130343F4801301FB024400FBB8
:10F4F000034E840A970A44EA815447EA8357A4FBDF
:10F50000076802958D0A05FB07854FEA932C04FBDB
:10F510000C542705029D4FEA065847EA1637B5EB0B
:10F5200008056EEB070C870E920E47EA811742EA38
:10F530008312A7FB0201B6EB0B0164EB00042B0D59
:10F5400043EA0C335E1844EB1C50DA465146E7FBA5
:10F550000201C5F313044FEA0B3343EA14534FEA95
:10F560000432019C43EA0603A4F10C040294009CBB
:10F57000CDE900B400F0DFF803B0BDE8F08F002063
:10F580000146F9E70EB540F2334102910021CDE981
:10F5900000110A460B4600F0CEF803B000BD00F0A3
:10F5A000004230F000400AD0C10D01F56071C0F397
:10F5B000160042EA0151C20840071143704700207B
:10F5C0000146704701F0004330B421F0004150EA99
:10F5D000010206D00A0DA2F56072C1F31301002AE0
:10F5E00002DC30BC00207047440F44EAC104C10073
:10F5F000E01830BC00EBC25000F057B830B50B46F5
:10F60000014600202022012409E021FA02F59D4252
:10F6100005D303FA02F5491B04FA02F52844151E26
:10F62000A2F10102F1DC30BD2DE9F05F05460020BA
:10F6300092469B4688460646814640241BE0284663
:10F6400041464746224600F020F853465A46C01A23
:10F65000914110D311461846224600F013FA2D1A94
:10F6600067EB01084F4622460120002100F00AFA0C
:10F6700017EB00094E41201EA4F10104DFDC4846CF
:10F6800031462A464346BDE8F09F202A04DB203A53
:10F6900021FA02F00021704721FA02F3D040C2F1B2
:10F6A000200291400843194670470029A8BF7047BF
:10F6B000401C490008BF20F00100704710B4B0FAA8
:10F6C00080FC00FA0CF050EA010404BF10BC704743
:10F6D00049B1CCF1200421FA04F411FA0CF118BF5D
:10F6E000012121430843A3EB0C01CB1D4FEA00612C
:10F6F0004FEA102042BF002010BC704700EBC350FF
:10F7000010440029A4BF10BC7047401C490008BF2A
:10F7100020F0010010BC704710B5141E73F10004F6
:10F7200008DA401C41F1000192185B411A4301D1F3
:10F7300020F0010010BD2DE9F04D92469B4611B11D
:10F74000B1FA81F202E0B0FA80F22032904600F085
:10F7500099F904460F4640EA0A0041EA0B01534674
:10F760005A46084313D0114653EA010019D0C8F194
:10F7700040025046FFF789FF05460E46504659465F
:10F78000424600F07FF9084305D0012004E02046FE
:10F790003946BDE8F08D0020054346EAE0762C436B
:10F7A00037430A986305E40AA0EB08000022FD0A2B
:10F7B00044EA47540A3002D500200146E9E7010532
:10F7C00010196941DDE9084500196941BDE8F04DAE
:10F7D000A2E72DE9FE4F804681EA0300C00F0C46E8
:10F7E000009021F0004123F00045B8EB0200A94150
:10F7F00005D24046214690461C460B46024623F061
:10F800000040104347D0270DC7F30A00C3F30A5145
:10F810000290401A019040286BDAC3F3130040F4C1
:10F82000801B0098924620B10023D2EB030A63EBC1
:10F830000B0B01985946C0F14002504600F022F9E6
:10F8400006460D4650465946019A00F02AF910EB3B
:10F8500008006141002487EA115284EAE7731A43E1
:10F8600040D0009A62B3019A012A4FEA075215DC90
:10F87000001B61EB02014FF0004202EA0752CDE9A2
:10F880000042001C41F5801132462B46FFF753FF22
:10F8900003B0BDE8F08F40462146F9E7001B61EB5D
:10F8A0000201001C41F5801300185B412018A2F5ED
:10F8B000001747EB030140EAD570B6196D4111E01E
:10F8C0006D084FEA360645EAC0754FEA0752001B3D
:10F8D00061EB0201001C41F5801149084FEA30003C
:10F8E0000019514132462B4603B0BDE8F04FFFF7F7
:10F8F00013BF0098012240000023D0EB020263EB0B
:10F90000E073009821464FEAE074B8EB000061EB29
:10F910000401E9E783F000435BE781F0004158E729
:10F920002DE9F04D81EA030404F0004B21F000457D
:10F9300014464FF0000A23F0004150EA050220D09F
:10F9400054EA01021DD0C5F30A570246C5F313035A
:10F95000C1F31300C1F30A5640F4801543F4801339
:10F96000A7EB0608101BD64608F2FD3873EB05001E
:10F9700002D308F1010801E092185B41B8F1000FD1
:10F9800003DA00200146BDE8F08D00204FF480111D
:10F99000064684460EE0171B73EB050705D3121BC2
:10F9A00063EB050306434CEA010C49084FEA3000BB
:10F9B00092185B4150EA0107EDD152EA030012D0E0
:10F9C00082EA040083EA0501084305D0101BAB411D
:10F9D00006D20122002306E000224FF0004302E09D
:10F9E0006FF0010253101AEB06004CEB085110EBBC
:10F9F0000A0041EB0B01BDE8F04DFFF78DBEC1F3EE
:10FA00000A52C1F3130140F2FF3341F480119A42CC
:10FA100002DA00200146704740F233439A42A2F2D4
:10FA2000334202DC5242FFF730BE00F02BB8000038
:10FA300030B5041E71F1000404DB4FF00044404275
:10FA400064EB0101141E73F1000405DB1C464FF04A
:10FA50000043524263EB0403994208BF904230BD19
:10FA6000064C074D06E0E06840F0010394E807000B
:10FA700098471034AC42F6D3FFF7C6FCFC66020090
:10FA80001C670200202A04DB203A00FA02F1002061
:10FA900070479140C2F1200320FA03F319439040CC
:10FAA0007047202A06DBCB17203A41FA02F043EADE
:10FAB000E07306E041FA02F3D040C2F12002914027
:10FAC00008431946704770B58C1810F8015B15F0A3
:10FAD000070301D110F8013B2A1106D110F8012BC0
:10FAE00003E010F8016B01F8016B5B1EF9D12B07E5
:10FAF00005D40023521E0DD401F8013BFAE710F89B
:10FB0000013BCB1A921C03E013F8015B01F8015B87
:10FB1000521EF9D5A142D8D3002070BD2DE9F84F6F
:10FB20000025DFF83091A8464FF4807701242E4657
:10FB3000384604F075FD38B1D9F80403204203D0EB
:10FB4000384604F063FD25433F1D6400761CBFB2B8
:10FB5000082EEDD34FF4BE74204604F061FD38B199
:10FB6000204604F053FD3C4845F00045D0F80080A5
:10FB70003A4F15F0FF0F15D0012600242E420DD06C
:10FB800009EB8401D1F81005D1F81015C0F3042059
:10FB900057F82420C1F3014102B190477600641C5C
:10FBA000082CEBD3002D52DA4FF0FF304FF0000A53
:10FBB000009000273C46294D291911F8500F91F962
:10FBC000001020F0C009491C32D00121009A01FA2E
:10FBD00009FB1BEA020F2BD08609484602F08CFB7A
:10FBE00055F820500DB9032E22D15946032E01D1CC
:10FBF0004AEA010A4FEA890000F1A040D0F8000764
:10FC00001BEA080FC0F3014002D0022802D00FE027
:10FC100003280DD1032E07D1022816D00221484611
:10FC200004F0BDFC7F1CFFB215B131464846A84721
:10FC3000641C042CBFD3002F09D00748006840453E
:10FC400005D08046CDF800A0B3E70321E7E7BDE883
:10FC5000F88F00000060004010050050885300201D
:10FC600000F01F02012191404009800000F1E020D6
:10FC7000C0F88012704700F01F0201219140400936
:10FC8000800000F1E020C0F88011704700F01F02F2
:10FC9000012191404009800000F1E020C0F80011EE
:10FCA000704700F01F02012191404009800000F1DF
:10FCB000E020C0F80011704700F01F0201219140C0
:10FCC0004009800000F1E020C0F8001270474907A9
:10FCD000090E002806DA00F00F0000F1E02080F89D
:10FCE000141D704700F1E02080F8001470470000F8
:10FCF0002DE9F0414FF48077384603F041FF0124AD
:10FD0000104EA50748B1384603F041FF0120C5F861
:10FD100008037470002002F02FFB4FF482773846FE
:10FD200003F02EFF00280BD0384603F030FF0220EE
:10FD3000C5F80803B470BDE8F041012002F01CBB17
:10FD4000BDE8F0817453002007480021C0F840113D
:10FD5000C0F84411C0F84811C0F84C11C0F80011A7
:10FD6000C0F8041105F0D6BB001001402DE9FE4398
:10FD70004FF48278404604F0A1FC504F0025504CCF
:10FD8000012600B3404604F0A1FC94F82B0010B10A
:10FD900094F82C10D1B18DF800506168019121893F
:10FDA000ADF80810E16829B16160A18A2181E560A0
:10FDB00018B103E084F8295000E03E6021686846ED
:10FDC000884784F82C5094F82B0098B34FF4807730
:10FDD000384604F073FC68B3384604F077FCE28AD6
:10FDE00072B194F82A108A4210D9A2EB010080B2B5
:10FDF000E0822289A2EB0000626802EB40000BE087
:10FE0000208994F82A10A0EB0100F0E707D1E06800
:10FE100028B184F82C60E58204F00AFC04E08A42F0
:10FE200002D184F82C60E582404604F04FFC234860
:10FE3000001D06604FF48877384604F03FFC50B14F
:10FE4000384604F043FC84F8295002208DF8000065
:10FE50002168684688474FF48A77384604F02EFCBC
:10FE600030B1384604F032FC84F82950BDE8FE83F6
:10FE70004FF000484FF48C7925691CE0B5FA85F005
:10FE800028FA00F109EB80078D43384604F016FC90
:10FE900088B1384604F01AFCA7F58C77F8088DF87D
:10FEA000040047F38000401C8DF800608DF80500C9
:10FEB000216868468847002DE0D1D7E700700040F0
:10FEC000385400202DE9F041884600EB40012148DC
:10FED000154600EBC104E16A01F0030002280BD0D3
:10FEE000A06A626A801A401E01D5226A10448542C7
:10FEF00002DD89072BD005464DB30027A06A616A51
:10FF0000461A761E01D5206A0644D4E90801411A32
:10FF1000B14201DC616A461AAE4200DB2E46616ADC
:10FF2000E069324608444146FFF786FA606A374482
:10FF3000B044AD1B30446062606A216A884201D1DE
:10FF400000206062002DD9D13846BDE8F081002044
:10FF5000FBE700003C2500200FB408B504A9009180
:10FF60006A46039900F003F801B05DF814FB2DE92F
:10FF7000F04198B0804607A8029040200026CDE9C5
:10FF80000306CDE9056815460C4614F8011B002947
:10FF900074D0252908D002A800F006FB0598002897
:10FFA000F3DA18B0BDE8F0810020217823291BD0B6
:10FFB0002B2916D02D290ED030290FD000222178E0
:10FFC000A1F130030A2B13D202EB820201EB4202B1
:10FFD000303A641CF3E740F0010007E040F0020013
:10FFE00004E040F0040001E040F00800641CDCE79D
:10FFF0000023CFB22E2F0BD114F8011FA1F130072F
:020000040002F8
:100000000A2F05D203EB830301EB4303303BF3E7F5
:100010006C290DD068290BD070294AD00BDC25291A
:1000200014D058292BD063290CD0642911D112E0A7
:1000300014F8011BECE773292CD0752916D0782908
:1000400007D11CE02868011D2960017802A800F092
:10005000ABFA641CA2E729680F1D2F600968CDE97F
:1000600000200A2202A800F0D3F9F2E729680F1D48
:100070002F600968CDE900200A2207E023E0296803
:100080000F1D2F600968CDE90020102202A800F0A2
:100090001FFADEE72868011D2960076817F8011BB1
:1000A0000029D6D002A800F07FFA05980028F5DADA
:1000B000CFE72868011D296001680820CDE9000606
:1000C00003461022E2E7059800287FF76AAF0498FC
:1000D00020B1024607A94046FFF7F4FEDDE904100F
:1000E000084405905DE7000038B50E480C4C00252B
:1000F000C0F80851D0F808110091214605F04CFADB
:1001000000280CD1A07EFF2801D004F077FA657694
:100110002571216801B0201DBDE83040084738BD79
:10012000185400200030004002494FF0402002F0F7
:1001300050BF00006854002005F06EB9074810B5A4
:10014000406830B18047002807D0BDE8104001F07A
:1001500073B8BDE8104002F0DFBE10BD28250020B6
:1001600070B58D488C4A00230078121D111D0125A1
:10017000062807D11478240704D10C78C4F303149B
:10018000032C02D0062804D00FE0854E834C746700
:100190000EE01478240708D10C78C4F30314032C60
:1001A00006D0042C04D0052C02D0062809D010E07B
:1001B0004FF08054D4F844427A4EC4F34234346051
:1001C00002E01478240704D10C78C4F30314032C40
:1001D00002D0062806D011E0734C266826F08076FF
:1001E00026600EE01478240708D10C78C4F30314B9
:1001F000032C06D0042C04D0052C02D006280AD0EB
:1002000011E04FF08044C4F80C31C4F81031654C53
:10021000241F236002E01478240704D10C78C4F36F
:100220000314032C02D0062805D00CE05D4A0320FD
:10023000643210600AE01478240704D10C78C4F307
:100240000314032C02D006280DD06AE0574A05207B
:1002500010605648783005605448083003603F20ED
:10026000121D106002E0107800075AD10878C0F320
:100270000310052855D14E4800684E4908604C4887
:10028000001D0068091D0860494808300068091D04
:10029000086047480C300068091D08604448103069
:1002A0000068091D0860424814300068091D086094
:1002B0003F48183000683F49203108603C481C30F6
:1002C0000068091D08603A4820300068091D086070
:1002D000374824300068091D086035482830006818
:1002E000091D086032482C300068091D086030483C
:1002F000303000682F49403108602D4834300068A4
:10030000091D08602A4838300068091D086028481F
:100310003C300068091D0860254840300068091D10
:10032000086021487438016841F470010160BFF32E
:100330004F8FBFF36F8F4FF01024D4F800020028C6
:1003400003DBD4F80402002822DA1B4A15601B489C
:1003500001680029FCD01525C4F800520168002965
:10036000FCD0C4F8045201680029FCD01360016875
:100370000029FCD0BFF34F8F0B48F0380168104ABA
:1003800001F4E06111430160BFF34F8F00BFFDE74F
:100390000D490C48086070BDE00F00F00DF0ADBADB
:1003A00000C007403C050040FCED00E01056004056
:1003B0000404001020C5004004E5014000E40140B1
:1003C0000400FA050090D003B4250020042202495D
:1003D000024802F0DFBD0000005400200080004011
:1003E00004220249024802F0D5BD00000C5400204E
:1003F000009000400448017F04480029024901D0D0
:1004000005F0B5BB05F024BBE05300200020004000
:100410002DE9FC5F0E008046DDE90C47C6F10000C7
:1004200099469246834600D40846012502E0B0FB77
:10043000FAF06D1C5045FAD2A94500D94D4624B1B9
:10044000002E01DB780700D5641EB80702D5B9F18C
:10045000000F10D0F8070ED16CB12046641EA842E0
:1004600009D92021404600F09FF8D8F80C00002858
:10047000F2DABDE8FC9F002E02DA5E462D2102E092
:10048000780707D52B21404600F08EF8D8F80C00ED
:100490000028EEDB07F00300022810D1B9F1000FAD
:1004A0000DD164B12046641EA84208D930214046CF
:1004B00000F07AF8D8F80C000028F2DAD9E7CDE994
:1004C00000474B4652463146404600F001F8D0E71F
:1004D0002DE9F84F8246DDE90A4B0125994617467A
:1004E000884608462E4602E0B0FBF7F0761CB8427C
:1004F000FAD2B14500D94E465FEACB701AD1CCB1E1
:100500005FEA8B7002D5B9F1000F02D02020009075
:100510000AE03020FBE75046009900F045F8DAF891
:100520000C0000283BDB2CB12046641EB042F2D800
:1005300000E07D43B8FBF5F0B84201D3012000E0B4
:1005400000204A46A9F10109012A01DD012100E04C
:1005500000210843EDD1DFF84C90B8FBF5F000FB2B
:10056000158819F80010504600F01EF8DAF80C0053
:10057000002803DBB5FBF7F5002DEED15FEACB7069
:100580000DD0002C0BD02046641EB04207D920218C
:10059000504600F009F8DAF80C000028F1DABDE85E
:1005A000F88F0000E066020010B50446D4E901307F
:1005B000421C934205DB23681954A260E068401C8A
:1005C000E060D4E90102824209D121682069FFF785
:1005D00079FCA168884203D04FF0FF30E06010BD85
:1005E0000020A06010BD00000FB4084B10B504A996
:1005F00002AA039800F0E0F8044602A9002000F0E7
:1006000072FC204610BC5DF814FB0000E70E0200EF
:1006100002E008C8121F08C1002AFAD170477047CB
:10062000002001E001C1121F002AFBD17047000029
:100630000121202803DA81400548014003E04028D9
:1006400002DA2038814009B101207047002070474C
:10065000FC06FFBC2DE9FF5FDDE90220010DDDF89E
:1006600038B0024318D044F61050A1F2FF31414394
:100670000D140F98012820D0A5EB0B00401C5FEA59
:10068000000A4FF00004474EDFF81C91A046504688
:1006900016D5CAF1000728E00F98012443A20128CB
:1006A00008D0002100980F9BC0E90021C0E9024357
:1006B000BDE8FF9F6FEA0B01F4E7CBF10000DEE736
:1006C000074612E0F80707D022463346404649461F
:1006D000FEF7E6FE80468946224633461046194616
:1006E000FEF7DEFE04460E467F10002FEAD1DDE95C
:1006F0000201BAF1000F42464B4602DAFEF7D0FE85
:1007000001E0FFF70DF904460E460022284BFFF7E3
:100710008FF903D84FF0FF30014607E00022254B48
:1007200020463146FFF755F8FFF769F9102409E034
:10073000002C0ADB0A220023FEF776FF019B3032F1
:100740001A55641E50EA0102F2D1641C019AC4F1E8
:10075000110314440F9A012A03D0012208430DD13A
:100760000AE0084304D000204FF0110B0F9080E7FF
:10077000A3EB0B056D1E0DE05B4504DD4FF00002A1
:1007800005F1010504E003DA4FF00002A5F10105CF
:10079000002AECD000980F99C0E90231C0E9004569
:1007A00086E70000000024400000F03F3000000019
:1007B0000000F0430000E03F2DE9FF4F95B09B465D
:1007C0008946064600250FE2252877D100242746D2
:1007D000F84A0121059400E0044316F8013F203B4C
:1007E00001FA03F01042F7D130782A2811D06FF0C7
:1007F0002F033078A0F13002092A16D8059A44F068
:10080000020402EB820203EB42021044761C0590C4
:10081000EFE759F8042B0592002A03DA504244F41A
:100820000054059044F00204761C30782E2816D12E
:1008300016F8010F44F004042A280DD06FF02F029F
:100840003078A0F13003092B09D807EB870302EBBE
:100850004303C718761CF3E759F8047B761C3078FD
:100860006C280FD006DC4C2817D068280DD06A28D9
:1008700014D104E0742810D07A280FD10DE044F48C
:1008800000140AE044F4801401E044F44014727847
:10089000824202D104F58014761C761C30786628DA
:1008A0000BD013DC582877D009DC002875D04528F8
:1008B000F6D04628F4D047281AD19DE118E06328E5
:1008C00035D0642879D0652812D195E1702873D08D
:1008D00008DC6728F1D069286FD06E280DD06F280A
:1008E00006D1B5E073282CD0752875D0782874D03F
:1008F0005A46179990476D1C75E1C4F302500228BF
:1009000009D003280DD0D9F8001004280DD00D60AF
:1009100009F1040967E1D9F80010EA17C1E90052AA
:10092000F6E7D9F800100D80F2E70D70F0E719F83E
:10093000041B8DF8001000208DF80100EA4601200C
:1009400003E059F804AB4FF0FF3061074FF00001AE
:1009500002D40DE008F101018846B9420FDA804562
:10096000F8DB1AF808100029F4D108E008F10101B9
:1009700088468142FADB1AF808100029F6D105985A
:100980005B46A0EB080721463846179A00F094FA18
:10099000284400EB080507E04DE029E10DE01AF8D6
:1009A000010B5A4617999047B8F10108F7D25B46F8
:1009B00021463846179A13E142E00A220092C4F316
:1009C00002524FF0000A022A08D059F804CB032A39
:1009D0004FEAEC710AD00DE029E02AE009F10701A5
:1009E00021F00702F2E802C1914609E00FFA8CFCFF
:1009F0004FEAEC71042A03D14FFA8CFC4FEAEC71F8
:100A0000002907DA0A460021DCF1000C61EB020143
:100A10002D2202E0220504D52B228DF8042001228C
:100A200003E0E20701D02022F7E7904659E00A21CF
:100A300002E010220DE010214FF0000A00910BE0BF
:100A400010224FF0000A44F004040827009203E04B
:100A500008224FF0000A0092C4F30252022A05D085
:100A600059F804CB0021032A08D009E009F1070155
:100A700021F00702F2E802C1914605E01FFA8CFC62
:100A8000042A01D10CF0FF0C4FF00008220728D5F2
:100A9000702806D0009B83F0100353EA0A0305D0A8
:100AA0000EE040228DF80420012208E05CEA0102F9
:100AB00006D030228DF804208DF8050002229046E1
:100AC000009B83F0080353EA0A030AD15CEA01029F
:100AD00001D1620705D530228DF804204FF00108BE
:100AE0007F1E582804D034A003900EA802900DE079
:100AF00036A0F9E753466046009AFEF795FD844616
:100B00000398825C0298401E029002705CEA010029
:100B1000F0D1029806A9081A00F1200A600702D550
:100B200024F4803400E00127574502DDA7EB0A00DA
:100B300000E0002000EB0A01009005984144401AB3
:100B40000590E00306D45B462146179A059800F00D
:100B5000B3F90544002706E001A85A46C05D17997D
:100B600090476D1C7F1C4745F6DBE0030CD55B46C8
:100B70002146179A059800F09FF9054404E03020BB
:100B80005A46179990476D1C0099481E00900029FD
:100B9000F5DC08E0029802995A460078491C029157
:100BA000179990476D1CBAF10001AAF1010AF1DC16
:100BB00065E1000009280100303132333435363721
:100BC0003839616263646566000000003031323399
:100BD0003435363738394142434445460000000039
:100BE00000F058F90544761C307800287FF4ECAD0D
:100BF00019B02846BDE8F08F620700D4062709F136
:100C0000070222F0070CFCE80223E14603F000484B
:100C10005FEA080C02D00FF2702C0DE05FEA045C72
:100C200002D50FF2682C07E05FEAC47C02D00FF215
:100C3000602C01E0AFF2700C4FF0FF3823F000435E
:100C4000CDF850C065280CD006DC452809D04628D0
:100C50001DD047283DD13DE0662818D067287ED1B9
:100C600038E00021112F01DB112000E0781CCDE9D4
:100C7000000106A90EA8FFF7EDFCDDE90F010E9AB1
:100C800003910021009207F1010A04914DE04FF019
:100C900000400097CDE9011006A90EA8FFF7DAFC85
:100CA000DDE90F0203920E9B11990022DDF80CA0E2
:100CB0000093049211B9791C00EB010AB7EB0A000A
:100CC00004D4C0F1FF3007F1010A0490AAEB070039
:100CD000019044E0012F00DA01270021112F01DDEE
:100CE000112000E03846CDE9000106A90EA8FFF763
:100CF000B1FCDDE90F010E9A0391002104910092ED
:100D0000BA4621070CD40399514500DA8A46BAF154
:100D1000010F05DD009AAAF10101515C302908D0CC
:100D2000B84202DA10F1040F06DA0121CDE9011010
:100D300015E0AAF10101E9E7002805DC0499014466
:100D40000491AAEB000102E0411C514500DD8A46F6
:100D50000499401A401C01904FF000400290200777
:100D600004D40198504501DBCDF8048000208DF8B3
:100D70004F0002980DF14F07B0F1004F25D02B2006
:100D80000E9002984FF0020800280CDA40420290C0
:100D90002D200E9007E00A210298FEF72FFC30313B
:100DA000029007F8011DB8F10001A8F10108F2DC7A
:100DB00002980028EFD1791E0E980870307800F064
:100DC000200040F0450007F8020D12A8C01B00F1FA
:100DD00007081498007800B1012000EB0A0101987F
:100DE00001EBE07105984144401A401E0590E00374
:100DF00006D45B462146179A059800F05DF8054435
:100E00001498007818B15A46179990476D1CE00362
:100E100024D55B462146179A059800F04DF8054405
:100E20001CE00498002807DBDDE90301884203DDAC
:100E30000098405C179901E0179930205A46904776
:100E4000049805F10105401C04900198401E019092
:100E500004D12E205A46179990476D1CBAF1000113
:100E6000AAF1010ADDDC05E017F8010B5A461799D3
:100E700090476D1CB8F10001A8F10108F4DC5B4655
:100E80002146179A0598ABE62D0000002B000000C4
:100E9000200000002DE9F041044600251E461746BB
:100EA000880404D405E039462020B0476D1C641E38
:100EB000F9D52846BDE8F0812DE9F041044600252A
:100EC0001E469046C80301D5302700E0202788043D
:100ED00004D505E041463846B0476D1C641EF9D57F
:100EE0002846BDE8F0810A68531C0B6010707047FB
:100EF0002DE9FC410446002016880F46108094F826
:100F00002D101546804631B132462946384600F04C
:100F10000DFF00287DD1A17801B32888001DB042C3
:100F200001D90C2018E0684679DFA8B92A88032186
:100F3000B95428881922401C80B228803A54288845
:100F4000401C80B22880C119BDF8000004F087FE63
:100F5000298808442880404600285AD1E278022196
:100F6000CAB1288894F90320C31CB34201D90C20CC
:100F70000FE0395428880123401C80B228803B545C
:100F80002888401C80B228803A542888401C288039
:100F90000020002875D16268CAB1288892F9002023
:100FA000C31CB34201D90C200FE0395428880A2110
:100FB000401C80B2288039542888401C80B2288088
:100FC0003A542888401C28800020002859D12189C3
:100FD00051B1CDE900563B460622022104F108003A
:100FE00004F08AFE00284CD1218A51B1CDE9005687
:100FF0003B460722032104F1100004F07DFE002887
:101000003FD1218B61B115223B46142104F1180018
:1010100000E036E0CDE9005604F06EFE002830D145
:10102000D4F820C0BCF1000F07D033462A46394619
:10103000604601F00BFA002823D1D4F824C0BCF19B
:10104000000F07D033462A463946604602F09EF923
:10105000002816D194F82C1039B133462A46394667
:10106000204603F0A1FE00280BD12178002908D0EA
:1010700002B033462A4639462046BDE8F04102F028
:1010800083BCBDE8FC810000134A0021535C0BB116
:10109000012103E0491C0629F8D300210F4A012849
:1010A00006D0022809D003280CD0042812D10DE064
:1010B000507810B109B101207047907810B109B192
:1010C00002207047D07808B103207047107908B12A
:1010D00004207047002070470D2500209054002008
:1010E00010B501220221002000F0B8FF08B1072846
:1010F00010D107220221012000F0B0FF08B107281B
:1011000008D100210A22084600F0A8FF08B10728EC
:1011100000D1002010BD000010B500210B2003F00D
:1011200011FA132003F020FA162003F01DFA002113
:10113000172003F007FA192003F016FA162003F01F
:1011400013FA0E2003F010FA00211A2003F0FAF926
:10115000182003F009FA1B2003F006FA0E2003F012
:101160003DFA132003F03AFA162003F027FA134849
:1011700002F01AFD162003F031FA11480068C00A87
:1011800010F0010F06D103F045FC02460DA100202E
:10119000FEF7E2FE0021084604F041FE0E49012060
:1011A00004F03DFE01F0C8FC012003F03BFC0246C8
:1011B000BDE8104009A10020FEF7CEBE40420F005E
:1011C00010050050446961675F76616C75653A206F
:1011D000307825780D0A000045230100726563769A
:1011E0005F76616C7565203A203078253034782040
:1011F0000D0A0000064800684FF40021044A8143AC
:10120000121D1160111D00F40020086070470000DD
:1012100004050050BFF34F8F05480168054A01F4EB
:10122000E06111430160BFF34F8F00BFFDE7000095
:101230000CED00E00400FA050EB500210091CDE9A7
:1012400001106A4644F20100FFF7E4FF0EBD10B53D
:101250008268C368934203D001F072FC002010BD85
:10126000052010BD29B112B1531E134203D009202D
:1012700070470E2070470160838000218160C1604B
:101280000846704710B58268C3689A1A83889A42E4
:1012900003D801F05FFC002010BD042010BD42689F
:1012A0000021117042685170426891704068C170AD
:1012B0000846704708B56A4600F007F808BD406860
:1012C00080787047028900F029B82DE9F84F048929
:1012D00090F80A80C0C8002591468A468DF80050D3
:1012E000684600F0BFF9B878B0B13878241D00FB2B
:1012F00004644146384601F041FB2088211D82B23A
:10130000A9F800205046FEF797F89DF8000000F07D
:10131000CBF92846BDE8F88F0425F6E72DE9F84F0C
:10132000D0E90094857A078900208DF80000924664
:101330008B460126684600F095F9A078A8420BD1AB
:10134000E07838B12946204601F018FB4FF0040838
:1013500026B916E00026F9E74FF0000861783F1D36
:1013600001FB0790A278491C521CC9B2A270A94285
:1013700000D10021617040F804AB52465946FEF797
:101380005BF89DF8000000F08FF94046BDE8F88F4B
:101390002DE9F84F204E8246934670880D468142D3
:1013A00037D84FF6FF784FF0000944468DF800908B
:1013B000684600F057F93778707802F033FBB8428E
:1013C00004D07478707802F02DFB70709DF80000E6
:1013D00000F06AF944451AD0B068BAF1000F40F83D
:1013E00034B00DD065B17188F0682A4604FB010065
:1013F0005146FEF721F8B06800EBC400858003E099
:1014000000EBC400A0F804900020BDE8F88F042091
:10141000FBE70920F9E70000E424002010B50B4C9D
:1014200020786178814210D022786188E068A368D2
:1014300002FB010003EBC20153F832208988904778
:10144000207802F0EFFA2070EAE710BDE4240020D3
:1014500010B5CB0008339CB2930701D0072010BD14
:10146000054B9A602244DA6000225A701A70588044
:101470009980104610BD0000E4240020074B5B68F3
:1014800023B12AB120B10068037C1BB1082070474A
:10149000072070474174426100207047C02400203B
:1014A0002DE9F04106461C4615460F46900726D109
:1014B0002DB303F0E3FA2046124C04F11001E06072
:1014C0000020087048708F704D6060602070607000
:1014D0001420FEF7C5FB06211420FEF7F8FB1420AC
:1014E000FEF7D4FB0848066006211120FEF7EFFB4B
:1014F0000548001F0068A0600020BDE8F0810720BB
:10150000FBE70000B0240020081501402DE9FC474E
:10151000DFF87490D9F804305BB350B3052902D2D8
:101520000720BDE8FC8743691BB3437C012B22D015
:10153000002705460024884616468DF80040684678
:1015400000F090F801A804F0BFFBB0B101210170D8
:101550000E4945600968C0E90218C0E904769DF8A3
:10156000040089F801009DF8000000F09DF834B1F6
:1015700008E00820D5E70F46DBE70424F3E7142052
:10158000FEF79AFB2046CCE7C0240020041501405A
:101590000649496839B130B1416921B1002101746E
:1015A000022103F095BF082070470000C0240020EE
:1015B000F0B5284E89B01F460D00044672603BD03E
:1015C000A888296882B22448FFF74CFE002834D14D
:1015D000A889A96882B220481030FFF743FE00288E
:1015E0002BD120221D496846FDF726FF6069069031
:1015F000207C00B101208DF814008DF81C70607CF7
:1016000000B10E208DF81500E0680290A0680390EC
:1016100020680190606800900E48114A69460830C1
:1016200002F066FD002808D1B0702068401C04D08C
:101630009DF81D0018B106E0072009B0F0BD05486F
:10164000083002F009FE03490122491CC81D02F0BE
:10165000B5FDF2E7D024002080520020A8660200E9
:10166000A559020030B5EFF3108372B60C4A9468A6
:10167000012184B991604FF0E021D1F88051094CEB
:1016800025401560C1F88041D1F8844154604A1763
:10169000C1F8842100210170002B00D162B630BD59
:1016A000A0520020FC06FFBC0B498A68002A11D01A
:1016B00000280FD1EFF3108072B60B684FF0E022D4
:1016C000C2F800314B68C2F8043100228A60002859
:1016D00000D162B670470000A05200202DE9F04111
:1016E000054608781C4F012606FA00F00C463860C3
:1016F000086802F04AFF0021606802F02CFF287998
:10170000164901EB40102968007FA069C1F8240543
:10171000607D217D2A680843C2F86C05D4E9001277
:101720002868C0F80C15C0F81425207D012810D1B8
:101730000021A06802F00FFF207B86403E60E06839
:1017400002F023FFD4E902122868C0F80825C0F887
:101750001015BDE8F081000008050050E05300209E
:1017600003F096BA30B50023A7B0554A09211846B0
:10177000FFF796FE08B1FFF75FFD514A1421D832FA
:10178000DC20FFF765FE08B1FFF756FD4D48FFF777
:1017900086FD4D4A40F6CD41032000F06DFC08B1B6
:1017A000FFF74AFD6946002000F0C6FB08B1FFF7CD
:1017B00043FD9DF8000002287FD000208DF89400A2
:1017C00000F084FB9DF8080040A120F00F00401CB1
:1017D00020F0F00010308DF80800072202A87CDF0E
:1017E00008B1FFF729FD03A86DDF00240094102045
:1017F000ADF800003C200194ADF80200ADF80440C3
:101800004FF4C870ADF8060068467ADF08B1FFF7FC
:1018100013FD3048009069462F4800F0CDFA08B11A
:10182000FFF70AFD382101A8FDF71FFE02208DF801
:1018300004008DF8064006208DF8070038210FA817
:10184000FDF713FE254801251490ADF84C502021DA
:101850001DA8FDF70AFE402021908DF87750B42096
:1018600022901F4B1DAA0FA9009401A800F078F840
:1018700008B1FFF7E1FC1C216846FDF7F6FD4FF4C7
:101880002030CDE900404FF47020029003208DF805
:101890000C001448059014480690ADF80E408DF8E1
:1018A0001040684600F0D4F908B1FFF7C5FC0320EA
:1018B00000F04CF927B030BDFFE701207EE70000C3
:1018C0002C260020545E02001920020054424F537F
:1018D0003031300031470200B83900202E2100207D
:1018E0006D4702009D480200D924020070B50D46E4
:1018F00092B01F21ADF84010ADF84410002488B11B
:10190000C178490701D4072200E0002212B1104635
:1019100012B070BD10AA6946FFF7EAFA0028F7D1A5
:101920006E4602E00026ADF840406DB1E87800B1A7
:1019300007200028ECD111AA08A92846FFF7D8FAF9
:101940000028E5D108AA02E00022ADF84440BDF825
:101950004400C3B2BDF84000C1B2304672DFD7E7E1
:101960002DE9F0471F46DDF8208013468946040024
:1019700042D0EBB3404D012000262870EE702022AB
:1019800019463E48FDF758FDC5E904784FF6FF704B
:101990002881AE613948AE83AE7738212030FDF71B
:1019A00064FD364A207820321070A0789070E0787C
:1019B000D070607850703148D4E90413C0E90C133A
:1019C000D4E90213C0E90A13D4E90613C0E90E13DF
:1019D000606AE0B102F1380000F10C0150628160F0
:1019E000636A1B880380606A536A8088988000E07D
:1019F00002E00020536A07E00E20BDE8F087656A28
:101A0000AD682D5C0D54401C9D888542F7D8A06AB6
:101A1000D8B11A499031A1F10C0081609062A36A9B
:101A20009B888380A06A936A008818800020936A4C
:101A300004E0A56AAD682D5C0D54401C9D8885426C
:101A4000F7D894F82C0082F82C00206A48B10A4894
:101A50000A301062216A49884180206A116A008830
:101A60000880606800B150604946BDE8F04703480F
:101A70002030FFF73BBF0000F424002090540020EA
:101A800010B50188144C102917D011291BD01B291F
:101A900018D1007A002815D1E0780521401CB0FB50
:101AA000F1F201FB120000F051F800280AD0616940
:101AB000002907D0BDE810400847C17B012901D1AA
:101AC0008088208110BD0021617180882189884231
:101AD000F8D10120E7E70000F424002010B5022827
:101AE00001D0032810D1094C607800280CD00020C8
:101AF0006070E07800F02AF8002805D061690029BC
:101B000002D0BDE81040084710BD0000F4240020BA
:101B100010B574DF0B4C01200B4960710020E0719F
:101B20000620C87000210848FFF7E0FE002807D112
:101B3000E07800F00BF810B1616901B1884700202E
:101B400010BD0000F4240020B05400202DE9F04125
:101B50003D4C804686B0207848B184F8038004A8C4
:101B600001F03CF80498012628B1667067E008206F
:101B700006B0BDE8F0810025A561344FA583A577A7
:101B8000787810B1E078012806D0B87858B1E078BC
:101B9000012801D0022806D1216919B12671082037
:101BA000884700E025714046FFF76EFAE070216932
:101BB00039B1032801D0042803D1387808B16079FD
:101BC00090B1A57100950295019503958DF800508F
:101BD0008DF808501C48E1781830052925D2DFE837
:101BE00001F03008111D2100E571A671072088471A
:101BF000E8E7A67001908DF80060ADF80C50ADF8E4
:101C00000A5014E00221A17001908DF80060B8899B
:101C1000ADF80C003889ADF80A0008E0684603F01A
:101C20001DF902E0684603F03DF9E07818B1684616
:101C300073DF00289CD1216909B1A0788847002072
:101C400096E7A570F7E70000F424002090540020E8
:101C500070B5064601461C220F48FDF7EDFB0F4C00
:101C600000252570306830B1016861604068A0606F
:101C7000201D7ADF02E00948001D7BDF00280AD121
:101C80004FF6FF7060806570BDE87040044A002127
:101C90000448FFF7F3BB70BD6055002014250020F9
:101CA000695C0200CC66020070B51E4C01880026FB
:101CB0001B4BE289102915D01B4D11291CD012296C
:101CC00029D0502917D130F8061F914213D14189EC
:101CD000022910D10C3000F0F5F888B1BDE8704051
:101CE00000F0FCBB818859800169D96040691861A6
:101CF0005E70002AF2D070BD4FF6FF7058805E70A3
:101D00002868FFF745FC0028F5D0A1690029F2D02A
:101D1000BDE8704008478168D960C0681861DDE798
:101D20001425002060550020CC6602007CB50546D5
:101D300008880C460930904201D90C207CBD6846C9
:101D40006DDF0028FAD121880820685420881B21E3
:101D5000401C80B2208029542088401C80B2208002
:101D60002844DDF801100160BDF80510818020884D
:101D7000801D80B220809DF80010490800D001210C
:101D800029542088401C208000207CBD10B50446CA
:101D9000FFF78AFF2146074800F040F8204602F08E
:101DA000F7FC2046FFF76CFE2046BDE8104000F02F
:101DB000EDB80000B839002030B5040016480D46D3
:101DC00085B00FC88DE80F0023D015B34FF6FF7014
:101DD000A0822868A0610020A0752146684663DFC4
:101DE000002814D120788DF812000120ADF81000E1
:101DF000A21C04A9A0DF002809D12946204602F030
:101E000074FE002803D12946204603F048FD05B0A2
:101E100030BD0E20FBE70000D066020010B50400C4
:101E200021D000291FD00888102817D0112817D0DA
:101E3000502818D1881DCA88238A12319A4202D1AB
:101E40004389022B10D0A3889A420CD1A369002B9E
:101E500009D042892046BDE810401847888801E033
:101E60004FF6FF70A08210BD084600F02BF800B1BD
:101E70000120A07510BD07B584B068B1828AA2F5B3
:101E80007F43FF3B0AD0827D42B1BDF81820142A5F
:101E900006D9072007B000BD0E20FBE70820F9E7B0
:101EA000002200920192029203928289039106A974
:101EB0000291ADF8002001218DF80210808A694658
:101EC000A6DFE7E7007800F00100704700B516488C
:101ED00089B00023006807905022144907A803F036
:101EE000BDF808B1FFF7A8F96A460121002003F008
:101EF0009FF808B1FFF7A0F91720ADF81000684669
:101F000003F08CF808B1FFF797F9094803F07CF863
:101F100008B1FFF791F9074803F0DAF8002801D07B
:101F2000FFF78AF909B000BD505E0200DC250020F1
:101F30008D1D0200115302007CB50C00124D0146AC
:101F40004FF00000296017D0694600F062F888B9A8
:101F500001A9012000F05DF860B99DF8041000208F
:101F600009B1022103E09DF8001011B10B2121708D
:101F700000E02070002806D16968002903D1BDE87F
:101F80007C40FFF7ADB87CBDA824002010B51B4CE9
:101F90000188606810290ED011292DD1401E606083
:101FA0002AD1FFF79DF8002826D02168002923D0E8
:101FB000BDE810400847E0B900210122084600F0C2
:101FC0004DF808B1072810D107220221012000F0A6
:101FD00045F808B1072808D104220221002000F0AA
:101FE0003DF808B1072800D1002010B1216801B1E7
:101FF00088476068401C606010BD0000A824002075
:1020000010B5032000F076F908B1062800D10020B1
:1020100010BD0020087070470F4910B50A880428C9
:1020200007D007280FD00A2815D1BDE8104002F0CC
:10203000D6BF1321104676DF0BE000280BD0BDE899
:102040001040FFF7F9B8A2F57F40FF3803D1FFF742
:102050005FFD0828F1D110BD2C210020072070471A
:10206000044902460020097AC90702D0104600F050
:102070002FB8704798240020104A10B5C2E901100B
:10208000C0070AD00E494FF4F01008600C4A002136
:10209000121D11600A49103108600A4A00210A48DD
:1020A000FFF7ECF9002807D107480121BDE81040EF
:1020B000064A001DFFF7E2B910BD00009824002079
:1020C00008050050E1310200A0660200F51102008F
:1020D0002DE9F84F854FDFF810A24FF4E012F968B0
:1020E00004468A430091002079680AF104052E1DF8
:1020F0007F4B4FF4003C4FF4802B01EB810E814667
:10210000182C16D2DFE804F00C17173A4E606F82D5
:10211000848D848DEA9E9E9E9E9EC8CFD8E0EAEA7A
:10212000009A4FF4F01191432960C6F8009087F8A7
:102130000090BDE8F88F2A604846C6F80090DAF8AB
:10214000002082F4F01292030AD5C5F800C0306076
:10215000022C02D14FF4E16009E04FF47A6006E00E
:10216000C6F800C02860022C3BD04FF4C87064222F
:10217000B0FBF2F041433C7000225CE02A6048462C
:10218000C6F80090DAF8002082F4F012920305D528
:10219000C5F800C030604FF44870E8E7C6F800C0EA
:1021A00028601EE02A604846C6F80090DAF8002051
:1021B00082F4F012920303D5C5F800C03060CCE77A
:1021C000C6F800C02860D0E72A604846C6F80090EC
:1021D000DAF8002082F4F0129203DFD5C5F800C0CF
:1021E0003060C820C3E72A604846C6F80090DAF895
:1021F000002082F4F012920303D5C5F800C03060CD
:1022000002E0C6F800C028603C7013E02A604DE090
:10221000DAF800002BEA00022A6000F48020306027
:1022200008E0DAF800002BEA0001296000F48020C1
:102230003060714600221868BDE8F84FFFF766B9B4
:1022400029602EE098465868FFF7A2F9D4F11101F1
:1022500000D040B1F96801F4F0112960C6F800908F
:10226000C7F80C9065E74FF40022FA6001290CD9F9
:10227000C82011FB00F16420B1FBF0F17868002266
:102280004143D8F80400FFF741F9F96801F4F0116F
:102290003160C5F800904CE74FF4F0112960C6F8A2
:1022A00000903C7045E74FF4E01129604946C6F8BC
:1022B0000090C6F800C0C3E74FF4D011296049462A
:1022C000C6F800905A4607E04FF4C011296049460D
:1022D000C6F800904FF4C0223260B1E74FF4F0111D
:1022E00031604946ACE70000040500509824002006
:1022F000A0660200062070470249084490F93000A9
:10230000704700008853002038B10549814204D845
:102310000449814201D90120704700207047000024
:10232000B8250020C82500202DE9F0410025114FD7
:102330002E4605F1B200C0B2002103F045FD002198
:10234000084603F041FD0021102003F03DFD00246C
:1023500007EBC40001214655002003F035FD641C45
:10236000E4B2802CF4D36D1CEDB2082DE1D3BDE8AE
:10237000F0810000884B002070B5084C05000AD0A1
:1023800010342168002901D00868206005D0496810
:1023900028468847F5E70834F3E770BD74530020FA
:1023A0002DE9F05F26494868F0B3DFF898B0076878
:1023B0008946DBF800408E68A01B20F07F458878B6
:1023C000ED1CB0B9DFF880804FF48030C8F84403CA
:1023D000C8F804031120FDF743FC1120FDF756FC5B
:1023E0004FF0010AC8F800A02F2001F0AFFC89F8D7
:1023F00002A0BD4200D23D46124AA8193C3220F04C
:102400007F401060DBF800105B46091B21F07F4124
:10241000001B20F07F40C91C81420FD91868106052
:102420002F2001F093FC00E004E0BDE8F05F1120F4
:10243000FDF742BCBDE8F05F02F020BBBDE8F09FB5
:10244000B024002004150140001001402DE9F041A6
:102450000D4611880646881D1446984202D90C2064
:10246000BDE8F0813088062814D34FF448674FF652
:10247000FF73B84201D998420CD17288062A09D359
:10248000BA4201D99A4205D1984205D09A4203D066
:10249000904201D9072000E000200028E0D105206B
:1024A000685420881221401C80B220802954208842
:1024B000401C80B220804119308803F0D0FB218875
:1024C000084480B220804119708803F0C8FB21883D
:1024D000084420800020C3E7FEF7AEBEF8B51348DD
:1024E00000F0D2FD114D0026114C0C3D30B1616958
:1024F000B9B101208DF80000684611E0287820B1BC
:10250000616971B18DF80060F6E7687858B1A1682B
:10251000084800220068FEF7F9FF10B1A16901B177
:1025200088472E70F8BD6168F2E700002025002082
:1025300060550020CC6602002DE9F8430446A02136
:102540003548FCF792FF0025A0213348241DFCF7F5
:102550008CFF224631A100202368FDF7FDFC206896
:102560002D4F401C2BD000202168421C0D4407EB4E
:1025700000110A60606848602068886004F1080003
:10258000C860206800EB800004EB8004D0B254F8EF
:10259000201F491CE8D1401CC6B20834204600F078
:1025A00045FCC1B207EB0610721C026054F8042C03
:1025B000C460C0E901210D440026B84623E004F1BF
:1025C0000800064600F032FC054632461AA10020FB
:1025D000FDF7C2FC012001C7606887E861003F1F6A
:1025E000EAE70024234657F824000090324615A15C
:1025F0000020FDF7B1FC641C042CF3DB1BA10020C0
:10260000FDF7AAFC761C08EB061738680028E8D10D
:102610002846BDE8F8830000885100206461746199
:102620005F737461725F6164647228257029203D54
:1026300020307825780D0A000D0A202570200D0A1B
:102640000000000073616D706C655F696E666F5F9E
:102650006275666665725B25645D5B25645D203D21
:1026600020307825303278200D0A20000D0A000035
:1026700070B5044686B00E464FF49620FFF75CFF17
:102680000546024615A10020FDF766FCA5B120799C
:10269000A84211D261790844A8420DD8042E0BD06B
:1026A00015A10020FDF758FC6279217906B020467B
:1026B000BDE8704000F028B8022060701421684620
:1026C000FCF7D3FE20680090FD208DF80400052162
:1026D000684601F0E1F906B070BD00000D0A746FA4
:1026E00074616C5F73616D706C655F6E756D203DBC
:1026F00025640D0A00000000696E2073656E745F2A
:10270000696E666F0D0A20002DE9F74F654C88B0A1
:1027100093460027B1B1BBF1000F06D112E08068EB
:10272000884207D2091A7F1CFFB204EB0710026827
:10273000002AF4D1491E01EB810004EB0711C9689E
:10274000451805E04FF49620E568FFF7F5FE83464F
:102750005B462A4654A10020FDF7FEFB4FF003081C
:102760004046BBFBF0FABBFBF8F208FB12B0059049
:10277000012600905346324653A10020FDF7ECFBA2
:102780005F4801F09DFA4FF000094A4609F101093E
:102790005CA10020FDF7E0FB0899032000244870AD
:1027A00014216846FCF761FE08983E49BAF1000F13
:1027B000006801EB0718009098F804008DF80400F9
:1027C00031DD0DEB0400297841712A7850A10020F9
:1027D000FDF7C2FBD8E9020100EB8000401D084470
:1027E0006D1CA84213D87F1C2E48FFB200EB0710C7
:1027F000052CC56801D2761C0DE0601F052801D2AA
:10280000B61C08E00A3C052C05D2F61C03E0641C4B
:10281000E4B20F2CD5D346A10020F61CFDF79CFB9B
:10282000AAF1010A34E0059800EB8000069028E048
:102830000DEB0400297841712A7842A10020FDF7B0
:102840008BFBD8E9020100EB8000401D08446D1CA1
:10285000A84213D87F1C1348FFB200EB0710052CC9
:10286000C56801D2761C0EE0601F052801D2B61C97
:1028700009E00A3C052C06D2F61C04E0641C06980C
:10288000E4B2A042D4DC38A10020F61CFDF764FBC2
:102890001421684601F000F95E45FFF476AF0BB0F5
:1028A000BDE8F08F885100207374617274206164F8
:1028B0006472202570203A206C656E677468203A37
:1028C00025640D0A000000006164645F6E756D2070
:1028D0003D20256420746D705F4469766973696278
:1028E0006C65203D20256420746D705F72656D619C
:1028F000696E646572203D2025640D0A00000000A9
:10290000C0C62D0061203D2025640D0A0000000096
:1029100073746172745F6461746120746D705F447C
:102920006976697369626C65203D2025640D0A0033
:10293000696E20746D705F446976697369626C6555
:10294000200D0A0073746172745F646174612020E9
:10295000746D705F72656D61696E646572203D2093
:1029600025640D0A00000000696E20746D705F72AE
:10297000656D61696E646572200D0A000278837866
:10298000521C5B1ED2B283708A4200D100220270B8
:102990007047000030B5B9B00C460546DC22284926
:1029A00001A8FCF749FD052C34D0002301224FF487
:1029B0009421244800F0D8F8020003D022A100207E
:1029C000FDF7CAFA022C01D054B113E022A8FF226D
:1029D00058210446FCF742FD58222946204607E0CC
:1029E000FF22842101A8FCF739FD8422294601A891
:1029F000FCF722FD002000903723114A19491148A5
:102A000000F0F8F8020003D017A10020FDF7A4FAA7
:102A100039B030BD1B4800780128F9D100232222AB
:102A20004FF49621074800F09FF8020003D016A14A
:102A30000020FDF791FA1CA10020FDF78DFAE7E7D1
:102A4000AC4A0020B8250020312066735F73746F94
:102A50007265203A6572725F636F64653A2025641F
:102A60000D0A000010A00400322066735F73746FBB
:102A70007265203A6572725F636F64653A202564FF
:102A80000D0A00003821002065726173655F616C7A
:102A90006C5F64617461203A6572725F636F646534
:102AA0003A2025640D0A000065726173655F616CF0
:102AB0006C5F64617461200D0A0000002DE9F04133
:102AC00000250C4F06460224002007EBC002715D72
:102AD000401CC0B26D1C11554028F6D301F0AAFF6E
:102AE0000021084602F0A1F9641CE4B2082CEBD3E3
:102AF000BDE8F081884B00200E4A10B5117854785B
:102B00000023A14212D0491CC9B21170022900D180
:102B1000137008491378183151F823100160906838
:102B2000084420F07F409060012010BD0360002029
:102B300010BD0000B02400200121002003F06FB977
:102B4000826883881A4003689A5C0A708168491C0D
:102B500081607047C26883881A4003689954C168CD
:102B6000491CC16070470000F8B506461A481F4668
:102B7000154600780C46C00708D03046FFF7C4FB66
:102B800030B13CB1200507D00620F8BD0120F8BDCA
:102B90000220F8BD0320F8BD3068A04204D8716857
:102BA00004EB0530884201D90520F8BD7DB16846A7
:102BB00001F0C8FE68B100980221C0E90067017207
:102BC000210B8181058201F017FF0020F8BD042050
:102BD000F8BD0720F8BD0000E024002028B104491A
:102BE000D1F8C41001600020704703207047000036
:102BF000AC5200202DE9F84307461D48DDF820803F
:102C00001E46007815460C46C0070CD03846FFF724
:102C10007BFB50B15DB154B145EA0400800708D098
:102C20000620BDE8F8830120FBE70220F9E7032036
:102C3000F7E73868A04204D8786804EB8601884238
:102C400001D20520EDE77EB1684601F07BFE68B158
:102C500000980121C0E900780172C0E9035486821E
:102C600001F0CAFE0020DCE70420DAE70720D8E7FD
:102C7000E024002070B5184C184B0246D4F8C00070
:102C8000197800EB400004EBC0008D0715D5022A2F
:102C900002D0032A1CD102E001F00EFE18E05978A0
:102CA000491CC9B25970032912D900215970082151
:102CB00002F054F801F02AFE0AE0480708D521F096
:102CC00004001870D4F8C41011B140F0020018705C
:102CD000BDE8704001F056BEAC520020E024002058
:102CE00070B50446007880B1184D287801280BD1C2
:102CF00017A10020FDF730F96389228918A100206F
:102D0000FDF72AF90020287070BDA2891BA10020C0
:102D1000FDF722F91E4A1FA10020FDF71DF91C4AEC
:102D200025A110320020FDF717F9194A2CA12032F5
:102D30000020FDF711F94FF4942032A1D0F8E420DF
:102D4000BDE870400020FDF707B9000038210020E1
:102D5000657261736520616C6C200D0A00000000D3
:102D6000657261736520737461727420256420201C
:102D7000656E642025640D0A0000000064617461C2
:102D80005F6C656E6774682025640D0A00000000A2
:102D900010A004006465766963655F69645F696EAD
:102DA00069742E6465766963655F74797065203A2D
:102DB0002025730D0A0000006465766963655F690C
:102DC000645F696E69742E6465766963655F7365B7
:102DD0007175656E6365203A2025730D0A00000049
:102DE0006465766963655F69645F696E69742E64A2
:102DF00065766963655F6261746368203A20257354
:102E00000D0A00006465766963655F69645F696ED9
:102E100069742E73616D706C655F72617465203AC0
:102E2000203078253038780D0A00000070B5002574
:102E30004FF400260446B04205D314A10020FDF74C
:102E40008BF8681E70BD0246237816A10020FDF79E
:102E500083F84FF6FF702178FF2902D12188814243
:102E600003D0641C6D1CB442F5D12378224615A111
:102E70000020FDF771F82A4619A10020FDF76CF833
:102E80001420B5FBF0F0800070BD00000D0A204357
:102E9000726F73732074686520626F72646572204C
:102EA0000D0A00002A646174615F616464722073BA
:102EB00074617274203A202570203D2025640D0A2B
:102EC000000000002A646174615F616464722065BF
:102ED0006E64203A202570203D2025640D0A0000F4
:102EE000746F74616C5F73616D706C655F6E756D2E
:102EF000203A25640D0A000010B502F02FFD02F003
:102F000047FAFEF72FFCFEF707F9FEF729FCBDE8AC
:102F1000104000F0C7B80000F8B51D4E307800280A
:102F200034D0F068002510B1002415B115E001245B
:102F3000FBE77078002829D1684648DF052803D0D0
:102F400020B1FEF779F908E0012506E0009800F0CD
:102F500077FF316909B1009888479CB970780028DB
:102F600014D17088ADF800006946B06861DF0528AB
:102F700003D020B1FEF760F904E0012402E0D6E9B5
:102F800002018847002DD0D0002CCED0F8BD000023
:102F900028250020F8B517460E460546002415E002
:102FA0004FF4A07000EB84004FF480312A58A14008
:102FB00052B1D5F804230A4206D0002129502958DD
:102FC0000091D6E900219047641CE4B2BC42E7D3EB
:102FD000F8BD7FB50C46054691F8211094F8200005
:102FE000CDE9000104F12602D11E2846E36902F072
:102FF0006EFB002823D194F8230008BB207B022815
:1030000001D003281CD12269E169914218D162697B
:10301000E261E37B84F82030217E0328C1F3401174
:1030200084F8211006D004B029462046BDE870403F
:1030300002F0E9BA00912946204602F0CDFB7FBD9F
:1030400004F10C0001AB07C883E8070094F82300E3
:10305000002168B1D5F8C404C5F8C404820701D5BD
:10306000012002E0400705D502208DF8000001E0B4
:103070008DF8001084F82410207E4007DFD4D4E9B6
:103080000021684690477FBD054940880A889042E4
:1030900004D34988884201D8012070470020704736
:1030A0001825002010B5022001F068FA032001F075
:1030B00065FA042001F062FA102001F05FFA122094
:1030C00001F05CFA032001F091FA642000F067FD42
:1030D000032001F07BFA642000F061FD032001F081
:1030E00085FA0021AE2002F06FFE0021084602F0B2
:1030F0006BFE0021122002F067FE0021402002F04A
:1031000063FE0021812002F05FFE0021CF2002F04B
:103110005BFE0021A12002F057FE0021C82002F032
:1031200053FE0021A62002F04FFE0021A82002F04D
:103130004BFE00213F2002F047FE0021D32002F089
:1031400043FE0021084602F03FFE0021D52002F098
:103150003BFE0021802002F037FE0021D92002F042
:1031600033FE0021F12002F02FFE0021DA2002F0D0
:103170002BFE0021122002F027FE0021DB2002F0AE
:1031800023FE0021402002F01FFE0021202002F03B
:103190001BFE0021022002F017FE00218D2002F00C
:1031A00013FE0021142002F00FFE0021A42002F0E3
:1031B0000BFE0021A62002F007FE0021AF2002F046
:1031C00003FE0021AF2002F0FFFDFFF7ADF8002164
:1031D000084601F02AFEBDE81040FFF7A5B8000040
:1031E0000348017AC90702D00078FEF771BF704723
:1031F00098240020F0B5DFF898C00027ACF1100546
:103200009CF800109CF80160D5F804E036E001EB72
:103210004102DCF80400491C00EBC2009CF80220CB
:10322000C9B28A4200D100210278022A03D0032ABF
:1032300024D1686820E06A6843681446104603E0B9
:10324000984203D00246C069C0B1F9E7B0B18242EA
:1032500007D1E3696B6023B90E4C0123A360AF6013
:10326000EB700368C069D06140B102681A44026023
:1032700004E00774C06968600028FAD18E42C6D1A4
:103280006868704501D00120F0BD0020F0BD00004D
:10329000C0240020001001402DE9F0412A4E0446D0
:1032A000002506F11007D6F804803EE014B1204650
:1032B000E4691DE03878796800EB4002401CC0B238
:1032C00001EBC2013870BA78904200D13D700A78A3
:1032D0004868012A2BD1027C4ABB8A684260CA68CE
:1032E00082600A69C26049698161F17801B1456013
:1032F0004168B268DFF854C08B1A23F07F436345FE
:1033000002D28168194406E0511A826821F07F4197
:103310008A4202D9511A016000E00560456001212E
:1033200085600174C56102F0B5F8002CBED1387813
:1033300079788842BAD17168414502D00120BDE850
:10334000F0810020FBE70000B0240020FFFF7F0099
:10335000FFF7D2FD07A10020FCF7FEFD0021084683
:1033600001F00EFE08490320C1F8000702F03AF808
:10337000FCE7000070726F6772616D207374617298
:103380007421200D0A0000001C00005070B5054695
:103390000E46808814461188021D0A44801C9A42F9
:1033A00001D8FE2801D90C2070BD401C7054208823
:1033B000FF21401C80B2208031542088401C80B204
:1033C00020808119288802F04AFC2188084480B2B4
:1033D0002080AA8842B1A96841B13044FCF72CF89A
:1033E0002088A98808442080002070BD072070BD77
:1033F00010B586B00C468DF80010014622460DF13E
:103400000100FCF719F8224608A10020FCF7A4FDF2
:103410000E4A15216846FDF7BBFF020003D00CA140
:103420000020FCF799FD06B010BD00006D73675FCA
:103430006576656E745F68616E646C65725F6C65FD
:103440006E6774683A2025640D0A0000713402002A
:103450006170705F73636865645F6576656E745FE5
:103460007075742052455455524E2025750D0A0032
:103470002DE9F04786B00446152903D0F3A10020BA
:10348000FCF76AFD14F8015B002605E0A25DF5A1DA
:103490000020FCF761FD761CAE42F7DB2A46F4A162
:1034A0000020FCF759FD042D02D320785A280BD0B8
:1034B000F7A10020FCF750FD14216846FBF7D5FF6B
:1034C00020680090FC201DE1DFF8DC93DC224946F7
:1034D000F648FBF7B1FF60780026F44F01234FF068
:1034E000FD0A4FF0FE0820B102286ED0FF20607068
:1034F00086E16370A0784FF4942524286FD01ADCFD
:103500000B286DD008DC32D2DFE800F031333C4DBF
:1035100056606B3131317400212877D006DC0C28DD
:1035200075D00D2874D0202821D11BE1222870D01D
:1035300023281CD1A7E05028F7D00ADCA0F13000E6
:10354000092814D2DFE800F0BBC4CDD6E11313F193
:10355000FB00C228E9D006DC5128E6D0C028E4D020
:10356000C12804D1FEE0C328DFD0C428DDD06670B6
:1035700046E114216846FBF778FF20684C4649462F
:10358000009008E014216846FBF76FFF2068C64CE6
:103590000090103475E001A8FBF779FF2046FBF797
:1035A0006FFF011DD8E014216846FBF75EFF20681D
:1035B000BD4C0090203464E014216846FBF755FFB1
:1035C0002068B94C009030345BE0CDE014216846AF
:1035D000FBF74BFF2068B44C0090403451E065E0AD
:1035E00018E014216846FBF740FF2068AE4C0090BD
:1035F000503446E014216846FBF737FF20680090FE
:1036000017F8600F8DF80400387988E028E00CE0A6
:1036100019E02EE014216846FBF727FF2068009090
:1036200095F878006EE0052196E014216846FBF7D6
:103630001CFF206800909C486C30016801918088D4
:10364000ADF808000AE014216846FBF70EFF206879
:1036500095490090743101A8FBF719FF0A217BE01E
:1036600014216846FBF701FF20688F4C00908434DA
:1036700007E014216846FBF7F8FE20688A4C0090AA
:103680008834214687E714216846FBF7EEFE206860
:10369000009085489930016801918188ADF8081043
:1036A00080798DF80A008048983078E714216846C0
:1036B000FBF7DBFE20687C4C0090A034E1E714218E
:1036C0006846FBF7D2FE2068009095F8C00019E02C
:1036D00014216846FBF7C9FE2068009095F8C400E5
:1036E00010E014216846FBF7C0FE2068009095F8B2
:1036F000C80007E014216846FBF7B7FE2068009079
:1037000095F8E8008DF804008DE714216846FBF772
:10371000ACFE206800908DF8046095F8E4008DF808
:103720000500062118E00AE0FFE714216846FBF7D0
:103730009CFE5D4920680922BC31009008E01421FC
:103740006846FBF792FE584920680922C83100906C
:1037500001A8FBF771FE0D21684600F09DF906B047
:10376000BDE8F087667002E103206070A078DFF8A2
:103770003C91022209F18409232865D01BDC092829
:1037800011D007DC3BD2DFE800F03AF1F1F1F1F1C2
:10379000F1F1F1000D2806D006DC0A2803D00B2831
:1037A00001D00C282BD1E1E0202832D0212844D0B0
:1037B000222824D187E0382847D010DC32280DD0C9
:1037C00006DC24287AD0302879D0312817D1A1E01E
:1037D000332875D0342801D0372810D1C6E0C1284D
:1037E000BDD006DC50286CD051286BD0C02806D143
:1037F000B5E7C228B3D0C328B1D0C428AFD0627017
:1038000014216846FBF731FE206800908DF8048093
:1038100009E758214846FBF728FE47F8B06F2448CF
:103820007E60BE60C7E9090602214846FFF7B2F88C
:1038300020A10020FCF790FB91E01C482A1F211DCD
:10384000C0F88460484648E04CE071E04576656E1B
:10385000742073697A65206572726F72202121214C
:10386000200D0A00307825303278202D200000000D
:103870000D0A7265636976655F636F6D6D616E6475
:103880005F6C656E677468203A2025640D0A00003D
:10389000496E76616C696420636F6D6D616E642042
:1038A0002121210D0A00000010A00400AC4A0020D4
:1038B00005000800636C65616E0D0A001BE025E0E1
:1038C0002FE03FE045E02E482A1F211D40F8886F79
:1038D00046608660C6602A488830FBF7ADFD02214D
:1038E00048463AE026482A1F211D40F8986F466056
:1038F00023489830F1E722482A1F211D40F8A06F85
:1039000046608660C6601E48A030E6E71C48C0F8E6
:10391000B06002E01A48C0F8B4602079C7F8B4007B
:10392000DDE71748C0F8D8602079C7F8D800D6E797
:1039300013482A1F211D40F8C86F46608660104852
:10394000C830CAE706B029462046BDE8F047FEF772
:103950008FBE0C48052103700020FFF71BF806B04E
:103960002046BDE8F047042100F096B862701421AB
:103970006846FBF77AFD206800908DF804A052E6B7
:10398000AC4A002038210020F8B50F4601781446D3
:103990000546012901D1687830B12088821C9A42FD
:1039A0002DD8012902D006E00720F8BD697801442E
:1039B000891C994223D8181A801E86B2ADF800607F
:1039C0002188B81C084469467DDF0028EDD129789C
:1039D000022905D1BDF80000B04201D809200AE053
:1039E0000820012905D16978B14202D8ADF800104C
:1039F00001E0ADF80060BDF80010FE2901D90C20EF
:103A0000F8BD2288491CB9542188491C89B22180FB
:103A100078542088401C2080BDF800100844208085
:103A20000020F8BD04498988884201D2401C00E08A
:103A30000020C0B270470000E42400202DE9F041CE
:103A4000114F124E124C0025A16801290AD00F49CE
:103A50001048FDF72FFC28B1606800B18047257041
:103A6000BDE8F081B97D012903D0A5600028EBD025
:103A7000F5E73278711C0448FEF7FDF910B101201A
:103A8000A060ECE7A560DFE7B839002028520020ED
:103A90008C240020545E020010B51C4A88B0927D30
:103AA000012A02D0002008B010BD8DF800100A468F
:103AB00001460DF10100FBF7BFFC69461448FDF714
:103AC00001FC040004D0024612A10020FCF744FAD5
:103AD000002006900E48FDF7F2FB80B114480178F3
:103AE00069B901210170134A042106A8FDF750FCB1
:103AF000069020B1024610A10020FCF72DFA18A173
:103B00000020FCF729FA2046CDE70000B839002054
:103B1000545E02006170705F6D61696C626F785F06
:103B20007075742072657475726E2025640D0A00BC
:103B30008C2400203D3A02006170705F73636865F9
:103B4000645F6576656E745F707574206572726F00
:103B5000722052455455524E2025750D0A00000022
:103B60000D0A2D2D2D3E68657265206E6F74696695
:103B7000795F6D73675F73656E64200D0A000000E6
:103B800000F180400068002800D00120704708B58F
:103B900000F18040002101600068009008BD4FF4F2
:103BA0007A71484300F046B800283ED01F4A2049A9
:103BB000126800BF00BF00BF00BF00BF00BF00BF52
:103BC00000BF8A422FD000BF00BF00BF00BF00BFB0
:103BD00000BF00BF00BF00BF00BF00BF00BF00BFED
:103BE00000BF00BF00BF00BF00BF00BF00BF00BFDD
:103BF00000BF00BF00BF00BF00BF00BF00BF00BFCD
:103C000000BF00BF00BF00BF00BF00BF00BF00BFBC
:103C100000BF00BF00BF00BF00BF00BF00BF00BFAC
:103C200000BF00BF00BF401EC3D17047B4250020B5
:103C30000024F40000283ED01F4A2049126800BF2B
:103C400000BF00BF00BF00BF00BF00BF00BF8A426F
:103C50002FD000BF00BF00BF00BF00BF00BF00BF2C
:103C600000BF00BF00BF00BF00BF00BF00BF00BF5C
:103C700000BF00BF00BF00BF00BF00BF00BF00BF4C
:103C800000BF00BF00BF00BF00BF00BF00BF00BF3C
:103C900000BF00BF00BF00BF00BF00BF00BF00BF2C
:103CA00000BF00BF00BF00BF00BF00BF00BF00BF1C
:103CB00000BF401EC3D17047B42500200024F4008B
:103CC00000283ED01F4A2049126800BF00BF00BF35
:103CD00000BF00BF00BF00BF00BF8A422FD000BF9F
:103CE00000BF00BF00BF00BF00BF00BF00BF00BFDC
:103CF00000BF00BF00BF00BF00BF00BF00BF00BFCC
:103D000000BF00BF00BF00BF00BF00BF00BF00BFBB
:103D100000BF00BF00BF00BF00BF00BF00BF00BFAB
:103D200000BF00BF00BF00BF00BF00BF00BF00BF9B
:103D300000BF00BF00BF00BF00BF00BF00BF401EEC
:103D4000C3D17047B42500200024F40000283ED0E1
:103D50001F4A2049126800BF00BF00BF00BF00BF5C
:103D600000BF00BF00BF8A422FD000BF00BF00BF0E
:103D700000BF00BF00BF00BF00BF00BF00BF00BF4B
:103D800000BF00BF00BF00BF00BF00BF00BF00BF3B
:103D900000BF00BF00BF00BF00BF00BF00BF00BF2B
:103DA00000BF00BF00BF00BF00BF00BF00BF00BF1B
:103DB00000BF00BF00BF00BF00BF00BF00BF00BF0B
:103DC00000BF00BF00BF00BF00BF401EC3D170478F
:103DD000B42500200024F40010B50B4C207808B165
:103DE000852010BD0020A06060602061E060062199
:103DF00000F02BF801F066F9012108B903480160D1
:103E00002170002010BD00007453002018050040F0
:103E100038B500208DF800006846FDF723FC074CFC
:103E2000207808B9FFF7D8FFE068401CE060012067
:103E3000A0709DF80000FDF737FC38BD74530020DA
:103E4000002801D1FEF798BA70474907090E0028EB
:103E500006DA00F00F0202F1E02282F8141D03E0FE
:103E600000F1E02282F8001400F01F0201219140CD
:103E70004009800000F1E020C0F88012C0F8001175
:103E8000704700002DE9F041254C064612200D46F2
:103E9000C4F80803234A92F82910022918D01046C2
:103EA0004FF4807890F82B00012913D00221C4F838
:103EB0000413012782F82970566015810021D16012
:103EC00020B3D58292F82A10304600F0B1FB25E0ED
:103ED000122002E0D16829B10220C4F804031120A5
:103EE000BDE8F081D660958260B94746384600F05B
:103EF000E5FB0028FAD0384600F0E8FB29463046BA
:103F000000F096FB0220C4F8040307E0294630467F
:103F100000F08EFB404600F0D9FB27600020DFE771
:103F2000007000403854002070B505460E480C461D
:103F300090F8291009B1112070BD00EB45010A7EEF
:103F40001AB910F82A2F521C0270E0790876207AEC
:103F500048762146284600F073FB227AE17928460C
:103F600000F0A2FB002070BD385400202DE9F04184
:103F70001C4D044695F8280010B10820BDE8F081DA
:103F800009B114B102E00720F8E7174C45F8101BFF
:103F9000164920780860091D60780860E078E876A6
:103FA00001262E7600206876A8762860104F2877A4
:103FB0006FF00040C7F808034FF4827000F086FBF2
:103FC000A1780720FFF741FF0220C7F80403E87E2D
:103FD00010B10120C7F804030448F038066000203F
:103FE000CCE7000038540020C8660200F07500409D
:103FF0000070004030B54FF4803405688C4013B138
:10400000C5F8044301E0C5F80843006800EB8100EF
:10401000C0F8402530BD0000016801220A60007927
:10402000034A00EB400002EB80000221017270475E
:1040300000540020F0B40468049E40F20115D4F846
:1040400000728D40AF43C4F800720468D4F8005287
:104050001D43C4F800523346F0BCFFF7CBBF00004D
:10406000F8B504460D460079204900EB400001EB0D
:104070008006307A08B10820F8BD3AB1326068682D
:104080007060002003464FF4A07709E00720F8BDD8
:10409000226807EB800153505158401CC0B2009178
:1040A00061798142F4D82068E978000B40B2FFF7CB
:1040B000CCFE20686978D0F8042561F30102C0F8CD
:1040C00004252068A978D0F8082561F30102C0F81A
:1040D000082520682978D0F8102561F30302C0F87C
:1040E0001025012030720020F8BD0000005400208F
:1040F0002DE9F041044600792D4F904607EB40151D
:104100000E46E87E10B10820BDE8F081707F287768
:104110002046FDF7E3FA5FEA08006860316929602C
:1041200031D0207996F81C8007EB40104FF4A2762E
:10413000007F0028206814D04FF4887100F0F1FA55
:104140004FF49071206800F0ECFA4FF492712068FF
:1041500000F0E7FA3146206800F0E3FA15492068DC
:1041600009E04FF48E7100F0CBFA3146206800F080
:10417000C7FA11492068C0F8041320684146000BB3
:1041800040B2FFF762FE207907EB4010007F002865
:10419000206801D0082100E00421C0F800150020AB
:1041A000E8752876A8750121E976A876ACE70000C5
:1041B000E053002010030200800002002DE9F041CE
:1041C0000379244E06EB4314257F3DB14FF4005391
:1041D000B3EB114F02D01020BDE8F081D4F804E019
:1041E00000234FF404774FF4017CBEF1000F07D099
:1041F000002D056802D0C5F8087301E0C5F808C3B2
:10420000E57DA5B1237E73B1616851B10179006884
:1042100006EB4111097F11B1C0F8047301E0C0F849
:1042200004C31120D8E721610123227604E0E2755E
:104230000025E16065762576047906EB4414247F39
:104240001CB1BDE8F04100F073B8BDE8F04100F0EA
:104250001BB80000E053002070B504460079094DFA
:1042600005EB4011087F00280AD1887E002807D17D
:10427000204600F0B4FC2179012005EB411188763D
:1042800070BD0000E05300202DE9F05F0446007986
:10429000264901EB4015A87E184302D1204600F0C4
:1042A0009EFC68680028206806D04FF40171C0F8B1
:1042B00004130020BDE8F09F4FF4A276314600F0D1
:1042C0001FFAB1464FF4927A4FF4847B514620682E
:1042D00000F011FA07465946206800F00CFA8046B3
:1042E0004946206800F007FA064648EA06003843C7
:1042F000ECD057EA060007D12946206800F0DCFB25
:10430000E87D697E8842E1D80020E8750FB103207E
:10431000D0E70EB10F20CDE7A87E0121002820684C
:1043200001D00160C5E74160C3E70000E053002011
:104330002DE9F047884604464FF48875994617469C
:104340000068294600F0EDF94FF4A2763146206866
:1043500000F0E7F92068C0F83485C0F838752068A7
:10436000B9F1000F13D0D0F8001241F02001C0F8CD
:1043700000122079184F07EB4010406850B12068B8
:104380004FF40471C0F804130020BDE8F087012148
:104390000160EEE7A946B0464FF4927A494620689C
:1043A00000F0BAF906464146206800F0B5F9054626
:1043B0005146206800F0B0F92E430643EED0227932
:1043C000002107EB4212D17508B10320DDE7002D73
:1043D000DAD00F20D9E70000E05300202DE9F047A4
:1043E000044600793F4E0D4606EB4013187F38B166
:1043F0004FF40050B0EB154F02D01020BDE8F0870D
:10440000204600F071F808B11120F7E79A754FF0D7
:1044100000099D60A3F8149020794FF0010A06EB83
:1044200040154E46287F0028206826D04FF490770C
:10443000394600F076F94FF4AC784146206800F038
:1044400070F92068AA7DA968C0F84415C0F848250D
:104450002068C0F808A06868F8B9BA4651462068D4
:1044600000F05AF907464146206800F055F9074325
:10447000F4D050BB85F816900FE04FF48E7841468B
:1044800000F03EF92068C0F808A02946206801F035
:10449000F6F968684FF4807780B13046AEE7414660
:1044A000206800F028F910B9A88AB842F7D1A88A84
:1044B000B84203D02946206801F0E1F9A88AA97D15
:1044C0008842ECD3A88AB84201D10F26D2E74746EA
:1044D0003946206800F00FF90028F9D02068C0F8AC
:1044E0000CA0C7E7E05300200079044901EB40101D
:1044F000807D002800D0012070470000E05300209C
:1045000030B541EA4201DDE9034541EA830180001B
:1045100041EA042100F1A04041EA0541C0F800173A
:1045200030BD30B541EA4201DDE9034541EA83018E
:10453000800041EA042100F1A04041EA0541C0F8B1
:10454000001730BD1CB500220B46009211460192A7
:10455000FFF7D6FF1CBD1CB500220B46009211468A
:104560000192FFF7DEFF1CBD1CB5002100910B4638
:10457000012201911146FFF7C3FF1CBD03218000FA
:1045800000F1A040C0F8001770471CB50021009151
:104590000B46012201911146FFF7C3FF1CBD8000AD
:1045A00000F5E06000F1A040026822F440320260B1
:1045B000026842EA01410160704700000121814028
:1045C00001480160704700000C0500500121814046
:1045D00001480160704700000C0500500121814036
:1045E000014801607047000008050050012181402A
:1045F000014801607047000008050050012181401A
:10460000014801607047000008050050034908B5E3
:104610000844002101600068009008BD006000406F
:1046200002494058012800D0002070470060004037
:10463000024A1060101D0160704700002C76004097
:1046400010B50A784B78302402F0030204EA031311
:104650001A438B784FF4E06404EA03231A43CB78BF
:104660004FF4805404EA03331A430B794FF4E024E7
:1046700004EA03431A434B794FF4801404EA0353CA
:104680001A438B79240104EA03631A4303010548A2
:104690001844C0F81825CA79097AC0F81415C0F86A
:1046A000102510BD00700040030103481844C0F8F5
:1046B0001425C0F81015704700700040024940589A
:1046C000002800D00120704700700040034908B561
:1046D0000844002202600068009008BD007000409D
:1046E0004058002800D00120704708B500224250F1
:1046F0004058009008BD4058002800D00120704765
:1047000008B5002242504058009008BDD0F804037C
:10471000084000D0012070474058002800D00120F8
:10472000704708B5002242504058009008BD000074
:104730002DE9F041A0B0002516460F462C46E8466C
:1047400007E03A5D08EB050006A1FBF74DFF0544C5
:10475000641CB442F5D331463846FEF749FE20B01A
:10476000BDE8F081253032782000000010B550B14E
:1047700003280CD10220FDF773FC002807D0BDE808
:104780001040FCF759BDBDE8104000F028BC10BD3A
:1047900030B53B4D04460288288889B03B2A3ED07C
:1047A0000CDC022A3FD0102A14D0112A21D0132A5F
:1047B00028D100231A4685217FDF29E0512A36D0EF
:1047C000522A21D0552A56D0562A1BD1A08813210F
:1047D00076DF1DE00720FDF743FC08B1FCF72CFD58
:1047E000A088288009B027A1BDE830400020FBF751
:1047F000B3BB0020FDF734FC08B1FCF71DFD4FF6FC
:10480000FF70288009B030BD00231A461946A9DF81
:104810000028F7D009B0BDE83040FCF70DBDA088F6
:10482000132176DFF4E7A088002167DFF0E710228C
:10483000A11D04A8FAF700FE9DF810100029E1D090
:104840009DF81800042803D0062801D00528D9D1E6
:1048500002290ED001208DF800004FF4C170ADF890
:104860000400A0886946A8DF0028CBD0FCF7E4FC50
:10487000C8E70220EFE7A0881721ADDFC8E70000F6
:104880002C210020424C455F4741505F4556545F04
:10489000434F4E4E45435445440D0A0000780028CE
:1048A00007D104483B21008876DF002801D0FCF7BF
:1048B000C3BC70472C210020134A10B50021517051
:1048C000017A012912D002291DD18189491C8181D7
:1048D000C189491C89B2C181028A914213D1002148
:1048E00000F03CFABDE8104000F010B8838AC48A9A
:1048F0004FF480611A1B8A4200DA91B2214489B2D6
:10490000C1829942EBD010BDE02400200B49D1F8C0
:10491000C400401EC1F8C40004D10948027822F046
:1049200002020270D1F8C000401CC1F8C000082883
:1049300002D10020C1F8C00070470000AC52002036
:10494000E024002070B504460D48D0F8C420082AA1
:1049500013D0D0F8C0101144082900D30839521CD4
:1049600001EB4101C0F8C42000EBC100054618214D
:10497000FAF77BFD0120256070BD002070BD0000AE
:10498000AC5200201A4930B4D1F8C00000EB40000E
:1049900001EBC004D1F8C400002827D0207A0128F8
:1049A00002D0022816D10FE0A18AE08A4FF480627B
:1049B000091A914200DA8AB2E168236901EB8001A9
:1049C00003EB800029DF01E0A08928DF112806D051
:1049D00000280BD0204630BC092100F0BFB90549A2
:1049E000087820F0020040F00400087030BC7047E6
:1049F000AC520020E02400200549087810F0060F92
:104A000004D140F002000870FFF7BCBF70470000FF
:104A1000E024002010B5FEF78FF8BDE810403020EC
:104A2000AFF3008008B500200090684600F05AFB04
:104A300008BD000070B5104E002505F1B000C0B2F1
:104A4000002101F0C1F90021084601F0BDF9002163
:104A5000122001F0B9F9002406EBC4000121405DE9
:104A600001F0B2F9641CE4B2802CF5D36D1CEDB2F8
:104A7000082DE2D370BD0000884B002070B50125E1
:104A800068044FF0E0210026C1F88001084C401076
:104A9000C4F84803C4F8080365602F20FFF756F9EF
:104AA000A560044C2F20A660FFF750F9A67070BDDA
:104AB00000100140B024002070B50546C87D0C46AA
:104AC00000284FF4847128460AD0FFF719FED5F864
:104AD0001805627EE1688854607E401C607670BD77
:104AE000FFF70EFED5F8180570BD30B58FB0002465
:104AF00005460D949DF834001C2120F00F00401C49
:104B000020F0F00010308DF834009DF8350020F0D2
:104B10000F00401C20F0F00010308DF835009DF89B
:104B2000360020F00600801C8DF836006846FAF743
:104B30009CFC9DF80000019440F010008DF80000EE
:104B40000DA8CDE904400394069428788DF83A0026
:104B50000320ADF838000C949DF83000142120F0AB
:104B60000F00401C20F0F00010308DF830009DF850
:104B7000310020F00F00401C20F0F00010308DF8C4
:104B800031009DF8320020F00600801C20F0180053
:104B900040F001008DF8320007A8FAF766FC0EA875
:104BA00007900CA808900120ADF824001420ADF85F
:104BB0002640ADF82800688805F10C0307AA69466D
:104BC000A2DF0FB030BD1FB501238DF800308DF886
:104BD00008100192D0E90012684690471FBD10B539
:104BE000044600684FF49271FFF78AFD4FF4847118
:104BF0002068FFF785FD20680121016010BD0000DD
:104C00007CB5054600780024002830D1052168686D
:104C1000FFF738F908B1FCF70FFB6968002031F89D
:104C20001020401C224494B20528F8DB0520B4FB78
:104C3000F0F0FAF7A7FC9FED0E1B53EC112BFAF7DF
:104C40002FFCFAF7BFFC0C4908600021009101918C
:104C5000FAF7A5FC41EC100B08A153EC102B6846A9
:104C6000FBF7C2FC6A4606A10020FBF775F97CBD84
:104C7000CDCCCCCCCCCC6C3F2821002025660000CC
:104C8000766F6C74616765203A2573200D0A000009
:104C90001FB51348011D0EC98DE80E000068039072
:104CA000104903A8FFF762F908B1FCF7C5FA694695
:104CB0000020FFF739F908B1FCF7BEFA05210A48D0
:104CC000FFF7E0F808B1FCF7B7FA074805210A300A
:104CD000FFF7D8F8002801D0FCF7AEFA1FBD00009E
:104CE000405E0200014C0200C825002010B50446B9
:104CF000FBF79EFC40B1002C09DA04F00F0000F134
:104D0000E02090F8140D06E042F2010010BD04F11D
:104D1000E02090F800044109082914D299B1012932
:104D200011D004290FD005290DD00B4A906868B125
:104D3000600952F8201004F01F040123A340194316
:104D400042F8201005E042F2020010BD2046FAF7BA
:104D5000A8FF002010BD0000A05200201FB50022B7
:104D60000092019202920392037A012B02D0022B4D
:104D700013D107E08DF8002002690292828AADF813
:104D80000C200AE001228DF800208289C389D21A02
:104D9000ADF808208289ADF80A20426801920068C7
:104DA0008268684690471FBD2DE9F0418046806AC1
